:04000000A3EF02F078
:08000800046ED8CF05F0E0CF33
:1000100006F00001E9CF0CF0EACF07F0E1CF08F0DD
:10002000E2CF09F0D9CF0AF0DACF0BF0F3CF12F01C
:10003000F4CF13F0FACF14F000C00EF001C00FF0AF
:1000400002C010F003C011F0F2A82AEF00F0F2B2E3
:1000500051EF00F0F0A630EF00F0F0B058EF00F0F4
:100060000EC000F00FC001F010C002F011C003F08C
:100070000CC0E9FF07C0EAFF078E08C0E1FF09C016
:10008000E2FF0AC0D9FF0BC0DAFF12C0F3FF13C0B2
:10009000F4FF14C0FAFF045006C0E0FF05C0D8FF0B
:1000A0001000938081B001D0162AF29230EF00F058
:1000B000938281B209D01606165003E0FF0A03E0CE
:1000C00003D0166A01D0166AF09030EF00F02020BD
:1000D000202A2A57454C4C434F4D452A2A202000C0
:1000E0002A2A2A2A2A2A2A2A2A2A2A2A2A2A2A2A70
:1000F0002A2A2A2A2A0047494F492048414E20539C
:100100004F205845000044412047494F492048416D
:100110004E2058450000536F78650000EA6A3E0E95
:10012000E96EEF500DE0020E016E006A002EFED760
:10013000012EFBD7970E006E002EFED7EF2EF3D7C1
:10014000120044B002D08C9E01D08C8E959E44B299
:1001500002D08C9C01D08C8C959C44B402D08C9A9B
:1001600001D08C8A959A44B602D08C9801D08C88A4
:10017000959800008B8E949E00D000D08B9E949E0C
:100180001200456A958E000E83BE010E4512958CB5
:10019000000E83BC010E006ED89000360050451250
:1001A000958A000E83BA010E006E00360036FC0EF2
:1001B0000016005045129588000E83B8010E006E9F
:1001C000003600360036F80E00160050451245C0C5
:1001D00001F01200958E958C958A95888B8C949C55
:1001E00000008B8E949E0000CCDF01C044F08B9EFB
:1001F000949E00008B8E949E00D0C3DF01C043F01C
:100200008B9E949E959E959C959A95984438006EE9
:10021000F00E001600504310016E15EF01F0949E91
:10022000949A949C8B9A949AD5D701C043F001BEBE
:10023000FBD7415202E18B9A01D08B8A949A00003D
:100240008B9C949C00008B9E949E4238436E0F0EB4
:10025000431643C044F075DF42500F0B436E446EAB
:1002600070DF1200280E3A6E0C0E3B6E010E3C6ED3
:10027000060E3D6E8B9E949E8B9A949A8B9C949CBA
:10028000959E959C959A9598949E949A949C0F0E01
:100290003E6E44DF010E396E3950030808E3030E49
:1002A000446E4FDF050E3E6E39DF392AF5D7020E58
:1002B000446E47DF050E3E6E31DF396A3950030860
:1002C0000FE3036A39503A0FE96E000E0320EA6E1D
:1002D000EFCF3EF0416A3EC042F0A1DF392AEED7AF
:1002E000BFEF02F03E2C01D003D0400E3F6E01D094
:1002F0003F6A010E3D5C3F263F508009406E416AD7
:10030000426E8DDF12003C50070A07E00B0A0AE03C
:10031000060A10E0020A14E018D0010E3D6E3E6E8F
:10032000E1DF18D0416A010E426E79DF020E3E6EA7
:10033000F5DE10D0010E3D6E020E3E6ED3DF0AD008
:10034000416A100E426E6BDF05D0010E416E3CC05B
:1003500042F065DF12000900F5520CE0F6CF39F0EB
:10036000F7CF3AF0F5CF3CF0CEDF39C0F6FF3AC018
:10037000F7FFF1D71200010E3D6E3E6EB3DF0C0E9B
:100380003C6EC1DF12004150016A405C03E240C094
:1003900000F00CD0006A080E426E40360036415024
:1003A000005CD8B0006E0136422EF7D7120038C07C
:1003B000EAFF37C0E9FF40C0EFFFE92AD8B4EA2AD4
:1003C000EF6A372AD8B4382A1200200E3BA8300E24
:1003D0003C6E3AC000F03AAE08D0001E002A00C0C1
:1003E0003AF02D0E3C6E3B8E3B8001503AC040F0FF
:1003F000640E416EC8DF00C03AF0300E01243D6E3D
:100400003AC040F00A0E416EBEDF300E00243F6E4F
:10041000300E01243E6E3CC000F0300E3D5C04E026
:100420003B823BBE3B8412D03CC03DF0200E3C6E74
:10043000300E3E5C04E03B803BBE3B8207D0D8A43C
:100440003B8004E13DC03EF0200E3D6E3BB405D044
:100450003BB206D03BB007D009D03CC040F0A7DF8C
:100460003DC040F0A4DF3EC040F0A1DF3FC040F0FF
:100470009EDF1200EF520FE0EACF3BF0E9CF3AF0F7
:10048000EFCF3CF040DF3BC0EAFF3AC0E9FFE92A8A
:10049000D8B4EA2AEFD71200010E396E392C41D0B8
:1004A000928280B214D0928280A2FDD7362A386A16
:1004B000180E376E36C03AF03B6E87DF010E3D6E88
:1004C000020E3E6E0FDFEA6A180EE96ED3DF9284E9
:1004D00080B41FD0928480A4FDD73606365003E046
:1004E000FF0A03E003D0366A01D0366A386A180E74
:1004F000376E36C03AF03B6E68DF200E406E57DF35
:10050000010E3D6E020E3E6EEDDEEA6A180EE96ED9
:10051000B1DF928680B604D0928280A2FDD7396A7C
:10052000BDD7FCEF02F00900F5520CE0F6CF39F030
:10053000F7CF3AF0F5CF40F03ADF39C0F6FF3AC0D6
:10054000F7FFF1D71200F86AD09E078E166A176A75
:10055000050E366E386A376AC150C00B0F09C16E7E
:10056000070EB46E0F0E926E030E936EF288F28831
:10057000F19CF086F086F19AC00EF21273D6CE0E80
:10058000F66E000EF76EE7DE010E3D6E020E3E6E59
:10059000A9DEE00EF66E000EF76EDDDE040E396E9B
:1005A000FA0E3E6EBBDD392EFBD7E5DE16C017F026
:1005B000928080B03BD0928080A0FDD7DCDEF60E2A
:1005C000F66E000EF76EC7DE386A180E376E36C04C
:1005D0003AF03B6EFADE010E3D6E020E3E6E82DE9A
:1005E000EA6A180EE96E46DF040E396EFA0E3E6EA8
:1005F00095DD392EFBD750D7BEDE386A180E376E20
:10060000060EF66E010EF76E8EDF010E3D6E020EC7
:100610003E6E68DEEA6A180EE96E2CDF060E396E51
:10062000FA0E3E6E7BDD392EFBD7A5DE3650165C0A
:1006300004E394908B80F29803D094908B90F2888E
:10064000175202E1176A166A386A180E376E160ECC
:10065000F66E010EF76E67DF010E3D6E3E6E42DEF6
:10066000EA6A180EE96E06DF386A180E376E17C090
:100670003AF03B6EAADE010E3D6E020E3E6E32DE99
:10068000EA6A180EE96EF6DE020E396EFA0E3E6E5A
:1006900045DD392EFBD76FDE386A180E376E500EE7
:1006A000406E85DE310E406E82DE060E3D6E010E1E
:1006B0003E6E18DEEA6A180EE96EDCDE386A180E45
:1006C000376E500E406E73DE320E406E70DE090ED5
:1006D0003D6E010E3E6E06DEEA6A180EE96ECADE57
:1006E000386A180E376E500E406E61DE330E406E63
:1006F0005EDE0C0E3D6E010E3E6EF4DDEA6A180EF3
:10070000E96EB8DE386A180E376E500E406E4FDE56
:10071000340E406E4CDE0F0E3D6E010E3E6EE2DD7D
:10072000EA6A180EE96EA6DE948482B412D0386AA2
:10073000180E376E780E406E3ADE060E3D6E020ED3
:100740003E6ED0DDEA6A180EE96E94DE93948A94C8
:1007500011D0386A180E376E200E406E28DE060E55
:100760003D6E020E3E6EBEDDEA6A180EE96E82DE56
:1007700093948A84948682B612D0386A180E376EA3
:10078000780E406E14DE090E3D6E020E3E6EAADD3E
:10079000EA6A180EE96E6EDE93968A9611D0386A70
:1007A000180E376E200E406E02DE090E3D6E020EF0
:1007B0003E6E98DDEA6A180EE96E5CDE93968A86D4
:1007C000958083B012D0386A180E376E780E406E5E
:1007D000EEDD0C0E3D6E020E3E6E84DDEA6A180EF2
:1007E000E96E48DE93988A9811D0386A180E376EF1
:1007F000200E406EDCDD0C0E3D6E020E3E6E72DD94
:10080000EA6A180EE96E36DE93988A88958283B27A
:1008100012D0386A180E376E780E406EC8DD0F0E93
:100820003D6E020E3E6E5EDDEA6A180EE96E22DE55
:10083000939A8A9A11D0386A180E376E200E406E3D
:10084000B6DD0F0E3D6E020E3E6E4CDDEA6A180EEE
:0C085000E96E10DE939A8A8AA9D6030094
:020000040030CA
:0E00000000C2180E008781000FC00FE00F40F5
:00000001FF
;PIC18F4520
;CRC=971A  CREATED="26-Apr-18 21:03"
